{
  "contractName": "MusicStore",
  "abi": [
    {
      "constant": true,
      "inputs": [
        {
          "name": "",
          "type": "address"
        }
      ],
      "name": "purchaserList",
      "outputs": [
        {
          "name": "",
          "type": "uint256"
        }
      ],
      "payable": false,
      "stateMutability": "view",
      "type": "function"
    },
    {
      "constant": true,
      "inputs": [],
      "name": "stopped",
      "outputs": [
        {
          "name": "",
          "type": "bool"
        }
      ],
      "payable": false,
      "stateMutability": "view",
      "type": "function"
    },
    {
      "constant": true,
      "inputs": [],
      "name": "owner",
      "outputs": [
        {
          "name": "",
          "type": "address"
        }
      ],
      "payable": false,
      "stateMutability": "view",
      "type": "function"
    },
    {
      "constant": true,
      "inputs": [],
      "name": "releasePrice",
      "outputs": [
        {
          "name": "",
          "type": "uint256"
        }
      ],
      "payable": false,
      "stateMutability": "view",
      "type": "function"
    },
    {
      "inputs": [],
      "payable": false,
      "stateMutability": "nonpayable",
      "type": "constructor"
    },
    {
      "anonymous": false,
      "inputs": [
        {
          "indexed": false,
          "name": "purchaser",
          "type": "address"
        },
        {
          "indexed": false,
          "name": "price",
          "type": "uint256"
        }
      ],
      "name": "ReleasePurchased",
      "type": "event"
    },
    {
      "constant": false,
      "inputs": [],
      "name": "buyRelease",
      "outputs": [],
      "payable": true,
      "stateMutability": "payable",
      "type": "function"
    },
    {
      "constant": false,
      "inputs": [],
      "name": "claimFunds",
      "outputs": [],
      "payable": false,
      "stateMutability": "nonpayable",
      "type": "function"
    }
  ],
  "bytecode": "0x608060405260008060146101000a81548160ff02191690831515021790555034801561002a57600080fd5b50336000806101000a81548173ffffffffffffffffffffffffffffffffffffffff021916908373ffffffffffffffffffffffffffffffffffffffff160217905550662386f26fc100006001819055506103a3806100886000396000f3fe6080604052600436106100555760003560e01c80631299fab91461005a5780633eb809ee1461006457806375f12b21146100c95780638da5cb5b146100f8578063ac3077731461014f578063e48fad8014610166575b600080fd5b610062610191565b005b34801561007057600080fd5b506100b36004803603602081101561008757600080fd5b81019080803573ffffffffffffffffffffffffffffffffffffffff1690602001909291905050506102a0565b6040518082815260200191505060405180910390f35b3480156100d557600080fd5b506100de6102b8565b604051808215151515815260200191505060405180910390f35b34801561010457600080fd5b5061010d6102cb565b604051808273ffffffffffffffffffffffffffffffffffffffff1673ffffffffffffffffffffffffffffffffffffffff16815260200191505060405180910390f35b34801561015b57600080fd5b506101646102f0565b005b34801561017257600080fd5b5061017b610371565b6040518082815260200191505060405180910390f35b336000600260008373ffffffffffffffffffffffffffffffffffffffff1673ffffffffffffffffffffffffffffffffffffffff16815260200190815260200160002054146101de57600080fd5b6001543410156101ed57600080fd5b6001600260003373ffffffffffffffffffffffffffffffffffffffff1673ffffffffffffffffffffffffffffffffffffffff168152602001908152602001600020819055507f8d1effefd17fa288f30cd82ba4ea2e1fffa350896c131d4ae9dabf118256327c3334604051808373ffffffffffffffffffffffffffffffffffffffff1673ffffffffffffffffffffffffffffffffffffffff1681526020018281526020019250505060405180910390a150565b60026020528060005260406000206000915090505481565b600060149054906101000a900460ff1681565b6000809054906101000a900473ffffffffffffffffffffffffffffffffffffffff1681565b6000809054906101000a900473ffffffffffffffffffffffffffffffffffffffff1673ffffffffffffffffffffffffffffffffffffffff166108fc3073ffffffffffffffffffffffffffffffffffffffff16319081150290604051600060405180830381858888f1935050505015801561036e573d6000803e3d6000fd5b50565b6001548156fea165627a7a7230582079105c809f88cec070016a29099315c2781937a3928235ea05867eac886e2f700029",
  "source": "pragma solidity ^0.5.8;\n\ncontract MusicStore {\n\n  // set owner\n\n  address payable public owner;\n\n  // circuit break\n\n  bool public stopped = false;\n\n\n  /*\n    trackCount: total number of tracks\n    releasePrice: price of release\n  */\n\n  uint public releasePrice;\n\n  /*\n    purchaserList: addresses who have already bought the purchase\n  */\n\n  mapping (address => uint) public purchaserList;\n\n  event ReleasePurchased(address purchaser, uint price);\n\n  modifier verifyHasNotPurchased (address purchaser) { require(purchaserList[purchaser] == 0); _;}\n\n  modifier paidEnough {require(msg.value >= releasePrice); _;}\n\n  modifier stopInEmergency { require(!stopped); _;}\n\n  constructor() public {\n    owner = msg.sender;\n    releasePrice = 10000000000000000;\n  }\n\n  /** @dev Buy release\n    */\n\n  function buyRelease()\n    public\n    payable\n    verifyHasNotPurchased(msg.sender)\n    paidEnough()\n  {\n    purchaserList[msg.sender] = 1;\n    emit ReleasePurchased(msg.sender, msg.value);\n\n  }\n\n  /** @dev Send funds to owner\n    */\n\n  function claimFunds()\n    public\n  {\n      owner.transfer(address(this).balance);\n  }\n\n}\n",
  "sourcePath": "/home/gt/music-store/contracts/MusicStore.sol",
  "compiler": {
    "name": "solc",
    "version": "0.5.8+commit.23d335f2.Emscripten.clang"
  },
  "schemaVersion": "3.0.11",
  "updatedAt": "2019-08-11T06:21:00.625Z",
  "devdoc": {
    "methods": {
      "buyRelease()": {
        "details": "Buy release"
      },
      "claimFunds()": {
        "details": "Send funds to owner"
      }
    }
  },
  "userdoc": {
    "methods": {}
  }
}